:020000040800F2
:1000000080060020F5010008FD010008FF0100083E
:1000100001020008030200080502000800000000B9
:1000200000000000000000000000000007020008BF
:1000300009020008000000000B0200080D02000881
:100040000F0200080F0200080F0200080F0200084C
:100050000F0200080F0200080F0200080F0200083C
:100060000F0200080F0200080F0200080F0200082C
:100070000F0200080F0200080F0200080F0200081C
:100080000F0200080F0200080F0200080F0200080C
:100090000F0200080F0200080F0200080F020008FC
:1000A0000F0200080F0200080F0200080F020008EC
:1000B0000F0200080F0200080F0200080F020008DC
:1000C0000F0200080F0200080F0200080F020008CC
:1000D0000F0200080F0200080F0200080F020008BC
:1000E0000F0200080F0200080F0200080F020008AC
:1000F0000F0200080F0200080F0200080F0200089C
:100100000F0200080F0200080F0200080F0200088B
:100110000F0200080F0200080F0200080F0200087B
:100120000F0200080F0200080F0200080F0200086B
:1001300000F002F800F03FF80AA090E8000C8244BA
:100140008344AAF10107DA4501D100F034F8AFF297
:10015000090EBAE80F0013F0010F18BFFB1A43F0A5
:1001600001031847FC0900001C0A0000103A24BFD4
:1001700078C878C1FAD8520724BF30C830C144BF0C
:1001800004680C607047000000230024002500264E
:10019000103A28BF78C1FBD8520728BF30C148BFEA
:1001A0000B607047642900F08780002070471FB5FE
:1001B0001FBD10B510BD00F047F91146FFF7F7FF5E
:1001C00000F04EFC00F065F903B4FFF7F2FF03BC4A
:1001D00000F022FCEFF30980704780F30988704734
:1001E000EFF30880704780F30888704740BA704783
:1001F000C0BA70470948804709480047FEE7FEE754
:10020000FEE7FEE7FEE7FEE7FEE7FEE7FEE7FEE7C6
:1002100004480549054A064B7047000009080008D4
:1002200031010008800000208006002080020020AC
:1002300080020020704700000FB4044910B503AAE3
:10024000029800F0D3F810BC5DF814FB14000020F5
:100250002DE9F0410E460446002020622046E16868
:10026000884730B3252805D0D4E901219047206A7A
:10027000401CF2E7E168204600278847050018D0B7
:10028000A5F14100192802D820354FF40067324605
:10029000294620462760FFF785FF40B1012804D09A
:1002A000F61D26F007060836D8E7361DD6E728469D
:1002B000DAE7206ABDE8F0812DE9F0410646002426
:1002C00010687529314616A510D0AFF300800028BC
:1002D00002DA404213A507E031688A0701D512A56A
:1002E00002E0490704D511A5012401E0AFF3008025
:1002F00000210A2206F1240709E0B0FBF2FCB0FB62
:10030000F2F302FB1C00303078541846491C0028D8
:10031000F3D123462A463046BDE8F04100F00CB840
:10032000000000002D0000002B0000002000000055
:1003300070477047704770472DE9F0470D46994662
:100340009246044600F124080168880604D5E06955
:1003500021F01001216000E00120A84201DD471BCF
:1003600000E00027A1697A1902EB0900081AA061D0
:100370002078C00602D42046AFF30080002608E0B3
:10038000D4E901211AF806009047206A401C761C27
:1003900020624E45F4DB2078C0060AD52046AFF334
:1003A000008006E0D4E9012130209047206A401CFB
:1003B0002062381EA7F10107F4DC07E0D4E901212F
:1003C00018F805009047206A401C2062281EA5F1FD
:1003D0000105F3DC2046AFF300802078000602D54B
:1003E0000220BDE8F0870120FBE70000074B70B555
:1003F0000D467B4400F011F80446284600F020F832
:1004000010B14FF0FF3070BD204670BD27060000D0
:1004100001694A1C02610878704700B58FB0CDE9C8
:1004200001310021059105497944CDE903101146B8
:100430006846FFF70DFF0FB000BD0000E5FFFFFFAE
:10044000007B00F080007047754600F02BF8AE4648
:1004500005006946534620F00700854618B020B5D0
:10046000FFF7D6FEBDE820404FF000064FF0000732
:100470004FF000084FF0000B21F00701AC46ACE84C
:10048000C009ACE8C009ACE8C009ACE8C0098D46B9
:10049000704710B50446AFF300802046BDE8104019
:1004A000FFF792BE004870471C0000202DE9F04184
:1004B000024600250026002000230024002791F892
:1004C00003C00CF00F0591F803C00CF0100CBCF148
:1004D000000F03D091F802C04CEA050591F800C066
:1004E000BCF1000F31D0146800202BE04FF0010C5C
:1004F0000CFA00F3B1F800C00CEA03069E4220D1CA
:1005000083004FF00F0C0CFA03F7BC4305FA03FC11
:100510004CEA040491F803C0BCF1280F06D14FF057
:10052000010C0CFA00FCC2F814C00AE091F803C0F8
:10053000BCF1480F05D14FF0010C0CFA00FCC2F8D9
:1005400010C0401C0828D1D31460B1F800C0BCF121
:10055000FF0F34DD546800202EE000F1080C4FF04E
:10056000010808FA0CF3B1F800C00CEA03069E4239
:1005700021D183004FF00F0C0CFA03F7BC4305FAAE
:1005800003FC4CEA040491F803C0BCF1280F05D128
:1005900000F1080C08FA0CF8C2F8148091F803C0B6
:1005A000BCF1480F07D100F1080C4FF0010808FA20
:1005B0000CF8C2F81080401C0828CED35460BDE867
:1005C000F081000029B1064A12690243044B1A6106
:1005D00004E0034A12698243014B1A61704700002C
:1005E0000010024029B1064A92690243044B9A6105
:1005F00004E0034A92698243014B9A61704700000C
:100600000010024029B1064AD2680243044BDA6066
:1006100004E0034AD2688243014BDA60704700006D
:100620000010024030B500210022002400232D4D8F
:100630006D6805F00C0121B1042905D0082923D1EA
:1006400005E0294D056022E0274D05601FE0254D9E
:100650006D6805F47012234D6D6805F48034022531
:1006600005EB92421CB9214D554305600BE01D4D31
:100670006D6805F400351DB11C4D5543056002E061
:10068000194D5543056002E0174D056000BF00BFDE
:10069000144D6D6805F0F0010909154D6B5C056896
:1006A000DD4045600F4D6D6805F4E061090A104DAD
:1006B0006B5C4568DD4085600A4D6D6805F46051EE
:1006C000C90A0B4D6B5C4568DD40C560054D6D6822
:1006D00005F44041890B074D6B5CC568B5FBF3F52C
:1006E000056130BD0010024000127A0000093D0093
:1006F000000000201000002030B503460C461546CF
:10070000002207E0184600F008F824F812009B1CAD
:10071000501C82B2AA42F5DB30BD01460888704702
:1007200010B500F001F810BD0CB50020019000904C
:100730003348006840F480303149086000BF3048D9
:10074000006800F4003000900198401C019000986F
:1007500018B90198B0F5A06FF1D12948006800F4EC
:10076000003010B10120009001E0002000900098BE
:10077000012843D12348006840F010002149086057
:100780000846006820F0030008600846006840F052
:10079000020008601A4840681949486008464068E5
:1007A00048600846406840F48060486008464068F9
:1007B00020F47C1048600846406840F4E810486027
:1007C0000846006840F08070086000BF0C48006870
:1007D00000F000700028F9D00948406820F00300BC
:1007E000074948600846406840F00200486000BF82
:1007F0000348406800F00C000828F9D10CBD000047
:10080000001002400020024010B51348006840F07C
:1008100001001149086008464068104908400E4927
:100820004860084600680E4908400B4908600846C1
:10083000006820F4802008600846406820F4FE002C
:1008400048604FF41F008860FFF76AFF4FF00060B8
:100850000449086010BD0000001002400000FFF8CD
:10086000FFFFF6FE08ED00E021B1828942F400525C
:10087000828104E082894DF6FF731A4082817047BD
:1008800010B504462048844209D101218803FFF7AE
:10089000B9FE00214FF48040FFF7B4FE32E01B4860
:1008A000844209D101214804FFF78CFE00214FF456
:1008B0000030FFF787FE25E01548844209D1012169
:1008C0008804FFF77FFE00214FF48020FFF77AFEB7
:1008D00018E01048844209D10121C804FFF772FED4
:1008E00000214FF40020FFF76DFE0BE00A48844220
:1008F00008D101210805FFF765FE00214FF48010A3
:10090000FFF760FE10BD00000038014000440040C9
:1009100000480040004C00400050004002460020CB
:10092000B1F5007F00D100BF13880B400BB101204F
:1009300000E00020704700002DE9F04786B0054632
:100940000E460024A24600BFA1460027B08900B190
:1009500000BF2F462C8A4CF6FF700440F0880443F9
:100960002C82AC894EF6F3100440B08831890843DC
:10097000718908430443AC81AC8A4FF6FF400440C0
:10098000B0890443AC8201A8FFF74CFE1F488742A0
:1009900002D1DDF810A001E0DDF80CA0A88900F478
:1009A000004040B10AEBCA0000EB0A103168490070
:1009B000B0FBF1F807E00AEBCA0000EB0A1031685F
:1009C0008900B0FBF1F86420B8FBF0F004012009C5
:1009D000642101FB1089A88900F4004040B1322055
:1009E00000EBC900B0FBF1F000F00700044308E0A1
:1009F000322000EB09106421B0FBF1F000F00F0091
:100A000004432C8106B0BDE8F087000000380140A7
:100A1000C1F308028280704700BF704770B504467A
:100A20000D4600BF40210548FFF778FF0028F9D0A8
:100A3000E1B20248FFF7ECFF204670BD00380140EC
:100A400070B50446206805490840B0F1005F04D144
:100A500065682068FFF7C7FBA84770BD0000FE2F40
:100A60000EB500200090012002904FF4E13000F01C
:100A700037F811A0FFF7E0FB012202A91048FFF7A9
:100A80003BFE9DF808100FA0FFF7D6FB13E09DF882
:100A90000800012804D101900F48FFF7D1FF0AE0B8
:100AA0009DF80800022803D10C48FFF7C9FF02E0B7
:100AB0000948FFF7C5FFEAE7BDD6B9F10D0A000006
:100AC000022003087570646174655F666C61673D40
:100AD00025640D0A000000000028000800900108AD
:100AE00010B586B00446012144F20400FFF77AFDF8
:100AF0001948FFF7C5FE4FF40070ADF8140003204D
:100B00008DF8160018208DF8170005A91348FFF777
:100B1000CDFC4FF48060ADF8140004208DF8170070
:100B200005A90E48FFF7C2FC01940020ADF80800AB
:100B3000ADF80A00ADF80C00ADF810000C20ADF8CF
:100B40000E0001A90448FFF7F7FE01210248FFF754
:100B50008BFE06B010BD00000038014000080140C7
:100B6000800B0008000000201C0000006C01000841
:100B70009C0B00081C00002064060000880100088F
:100B80000000000001020304010203040607080933
:0C0B900002040608000000000000000045
:0400000508000131BD
:00000001FF
